:020000040800F2
:10000000008D01204D020008613F0008FD3D000801
:100010005D3F0008F50D0008FD4B000800000000E2
:10002000000000000000000000000000E1410008A6
:10003000A10F000800000000713F00080542000801
:1000400067020008670200086702000867020008EC
:1000500067020008670200086702000867020008DC
:10006000670200086702000867020008F90D00082F
:10007000050E0008110E00081D0E0008290E0008CC
:10008000350E0008410E00086702000867020008EC
:10009000670200086702000867020008670200089C
:1000A000670200086702000867020008670200088C
:1000B000670200086702000867020008670200087C
:1000C0006702000867020008670200083140000864
:1000D00067020008614B0008A94B0008F14B0008BB
:1000E000670200086702000867020008670200084C
:1000F0006702000867020008670200084D0E00084A
:10010000670200086702000867020008670200082B
:10011000E1480008294900084D440008670200082A
:10012000590E000867020008650E0008710E0008ED
:100130007D0E0008670200086702000867020008D9
:1001400067020008670200086702000867020008EB
:100150006702000867020008890E000867020008AD
:1001600067020008670200086702000867020008CB
:10017000670200086702000867020008000000002C
:10018000670200086702000800F002F800F04EF86D
:100190000AA090E8000C82448344AAF10107DA45E2
:1001A00001D100F043F8AFF2090EBAE80F0013F0E6
:1001B000010F18BFFB1A43F00103184728CB0000BA
:1001C00068CB0000103A24BF78C878C1FAD852072B
:1001D00024BF30C830C144BF04680C6070470000C1
:1001E0000023002400250026103A28BF78C1FBD840
:1001F000520728BF30C148BF0B60704766290AF01C
:100200004483642900F0FC80002070471FB50AF089
:100210002AFB00F067FC04000020002109F0BEFF6B
:10022000E06000F0A1F91FBD10B510BD00F076FD33
:100230001146FFF7EBFF06F097FA00F094FD03B4C8
:10024000FFF7F2FF03BC06F07DFA00000948804783
:1002500009480047FEE7FEE7FEE7FEE7FEE7FEE7A8
:10026000FEE7FEE7FEE7FEE704480549054A064BC0
:10027000704700001D42000889010008006D012040
:10028000008D0120007D0120007D0120704753EA90
:10029000020C00F069802DE9F04B4FF00006002BB6
:1002A0001FBFB3FA83F503FA05F424FA05F65E409E
:1002B00012BF1643B2FA82F502FA05F4C5F1200521
:1002C0001EBF22FA05FC44EA0C04203556EA044C11
:1002D0004FEA144418BF641C4FF000084FF00009A7
:1002E000904271EB030C39D3002919BFB1FA81F7A1
:1002F00001FA07F6B0FA80F700FA07F6C7F120070F
:100300001EBF20FA07FC46EA0C062037B6FBF4FCB9
:10031000A7EB0507103F07F01F0BCBF120062CFAC7
:1003200006F60CFA0BFB44BFB3460026202FA4BFF1
:100330005E464FF0000B5BEA060C08BF4FF0010B66
:1003400019EB0B0948EB0608ABFB027C06FB02CC61
:100350000BFB03CCC01B71EB0C01C1E70B46024643
:1003600041464846BDE8F08B13B5084318BF4FF02F
:10037000FF300146AFF30080BDE81C40704700002D
:100380000FB4044910B503AA029800F067FB10BC33
:100390005DF814FB10C101202DE9F0410E46044622
:1003A000002020622046E168884730B3252805D028
:1003B000D4E901219047206A401CF2E7E168204619
:1003C00000278847050018D0A5F14100192802D858
:1003D00020354FF400673246294620462760FFF754
:1003E0000DFF40B1012804D0F61D26F0070608369F
:1003F000D8E7361DD6E72846DAE7206ABDE8F0815F
:100400002DE9F0410646002410687529314616A5ED
:1004100010D0AFF30080002802DA404213A507E0B5
:1004200031688A0701D512A502E0490704D511A554
:10043000012401E0AFF3008000210A2206F1240725
:1004400009E0B0FBF2FCB0FBF2F302FB1C00303021
:1004500078541846491C0028F3D123462A463046D2
:10046000BDE8F04100F093B8000000002D0000004E
:100470002B00000020000000032A40F2308010F022
:10048000030C00F0158011F8013BBCF1020F62442F
:1004900098BF11F801CB00F8013B38BF11F8013BC0
:1004A000A2F1040298BF00F801CB38BF00F8013B6D
:1004B00011F0030300F0E482083AC0F0088051F81C
:1004C000043B083A51F804CBA0E80810F5E7121DE8
:1004D0005CBF51F8043B40F8043BAFF30080D20707
:1004E00024BF11F8013B11F801CB48BF11F8012BD3
:1004F00024BF00F8013B00F801CB48BF00F8012BF6
:10050000704702F0FF0343EA032242EA024200F08E
:1005100002B84FF0000200B51346944696462039C3
:1005200022BFA0E80C50A0E80C50B1F12001BFF4AC
:10053000F7AF090728BFA0E80C5048BF0CC05DF812
:1005400004EB890028BF40F8042B08BF704748BF60
:1005500020F8022B11F0804F18BF00F8012B7047D4
:10056000704770477047000070B5064C7C44064DDC
:100570007D4404E02046016808448047241DAC42C5
:10058000F8D170BDD0C70000D0C7000070472DE97A
:10059000F0470D4699469246044600F1240801684A
:1005A000880604D5E06921F01001216000E00120F7
:1005B000A84201DD471B00E00027A1697A1902EB80
:1005C0000900081AA0612078C00602D42046AFF3C3
:1005D0000080002608E0D4E901211AF806009047BF
:1005E000206A401C761C20624E45F4DB2078C00651
:1005F0000AD52046AFF3008006E0D4E9012130207F
:100600009047206A401C2062381EA7F10107F4DCE5
:1006100007E0D4E9012118F805009047206A401C42
:100620002062281EA5F10105F3DC2046AFF300800F
:100630002078000602D50220BDE8F0870120FBE704
:100640002DE9FF4F0C461E464FF0FF378BB0D2E925
:100650000001DDF860800A908A46C1F30A5505B9A9
:100660003D46002108464FF00000BAF1000F00F4AB
:10067000400005DA00EB80004FF4400101EA500031
:100680004FEA9059B9F1010F00DDB9460A9850EAD6
:100690004A000ED044F61050A5F2FF3545432F1402
:1006A000B8F1000F1ED07542291E1EDDC9F10002EF
:1006B0001CE0B8F1010F4FF0000001D0302103E041
:1006C000F24305E02154401CB042FBDB30460022DF
:1006D000002121540B99C1F80880C1E900200FB016
:1006E000BDE8F08FBD1B6D1CDEE74A4600DA6942AB
:1006F00006A800F099FA06AB93E8070003AB83E87D
:10070000070050460A9909F069F98DE80700A0F53D
:1007100000501F3800900398002D0ADD42F21F019F
:100720004A460844002303A90390684609F0D2FB17
:1007300009E0A0F500504A461F38002303A90390A2
:10074000684609F0DCFB8DE807000004000C03D0CC
:100750004FF0FF30410800E01046B8F1000F03D021
:100760000022009215461EE0751E05D400F0BEF969
:10077000303262556D1EF9D5B3460122084302D0CE
:1007800000227F1C04E02078302801D100227F1E47
:10079000002A099784D01DE0112D07DA00F0A6F990
:1007A000303262556D1C50EA0102F5D1084302D087
:1007B0000098C8B10EE00021681E05E0235C625C71
:1007C00063542254401E491C8142F7DBAB46A81BF0
:1007D000401E0990002004F80B000B98099AC0F8FD
:1007E0000880C0E9002B7AE711264FF0000857E790
:1007F0002DE9F04F88460446D21D22F0070191B042
:10080000D1E90001CDE90A0109F0B0FC02460B98DC
:10081000C00F01D02D2007E02068810701D52B20D3
:1008200002E0202101EAC000032A099001D0072A32
:1008300005DB03464146204600F0B6F90BE120787F
:10084000800601D5E06900E00620B8F1650F814619
:1008500006D0B8F1660F18D0B8F1670F70D131E04B
:100860000020B9F1110F009001DB112301E009F123
:1008700001030AAA01A90CA8FFF7E2FEDDE90C704A
:10088000002609F10105834647E001204B46009010
:100890004FF000470AAA01A90CA8FFF7D1FEDDE935
:1008A0000DB00C995D46002610B909F101000D1834
:1008B000B9EB050003D4C0F1FF3609F10105A5EB42
:1008C00009002BE0B9F1010F01DA4FF00109002016
:1008D000B9F1110F0090484601DD112300E00346F5
:1008E0000AAA01A90CA8FFF7ABFEDDE90C704D4682
:1008F00000268346207800070AD4AB4500DA5D461F
:1009000001A8012D04DD411911F8011C302907D07F
:100910004F4502DA17F1040F04DA012082460FE096
:100920006D1EEEE7002F02DCED1B3E4403E0781C59
:10093000A84200DD7D1CB81B00F1010A4FF0004702
:100940002078000703D4AA4501DB4FF0FF3A0021CD
:10095000B7F1004F0DF143088DF8431024D0022069
:100960002B23002F01DA7F422D230A21021EA0F142
:10097000010000DC5FB197FBF1FC97FBF1F201FB9A
:100980001C7C17460CF1300C08F801CDEEE7A8F1FD
:10099000010003702188090501D5452100E065218A
:1009A000A0F1010800F8011C09980FA9A1EB0807A4
:1009B000FF1D00B10120411901EBEA70A169384423
:1009C000081A401EA0612078C00602D42046AFF36A
:1009D0000080099828B1D4E901219047206A401C81
:1009E00020622078C00622D52046AFF300801EE0AA
:1009F000002E04DBB34502DD01A8805D00E030205D
:100A0000D4E901219047206A401C2062761CAAF19B
:100A100001005FEA000A0AD100F064F8C0680168CA
:100A2000405CD4E901219047206A401C2062281EC6
:100A3000A5F10105DCDC07E0D4E9012118F8010B80
:100A40009047206A401C2062381EA7F10107F3DCA2
:100A50002046AFF30080032011B041E6074B70B58C
:100A60000D467B4400F08DF80446284600F04EF910
:100A700010B14FF0FF3070BD204670BDE35C000048
:100A800010B5203AC0F00B80B1E81850A0E818501B
:100A9000B1E81850A0E81850203ABFF4F5AF5FEA6B
:100AA000027C24BFB1E81850A0E8185044BF18C910
:100AB00018C0BDE810405FEA827C24BF51F8043BB7
:100AC00040F8043B08BF7047D20728BF31F8023B0B
:100AD00048BF11F8012B28BF20F8023B48BF00F89F
:100AE000012B70470048704730C0012030B5B0F18D
:100AF0000A0271F100034FEA900E4EEA817EB0EBDC
:100B00000E0061EB91014FEA101E4EEA017E10EBE0
:100B10000E0041EB11114FEA102E4EEA016E10EB60
:100B20000E0041EB11214FEA104E4EEA014E10EB40
:100B30000E0041EB1141401841F100014FEAD00095
:100B400040EA41704FEAD1014FEA810444EA9074CF
:100B500010EB800544EB01046D1944EB0404521BB7
:100B6000A3414FF0000348BF0A3200D530BD401CFE
:100B700041F1000130BD000001694A1C02610878A2
:100B8000704700B58FB0CDE90131002105910549CD
:100B90007944CDE9031011466846FFF7FDFB0FB01D
:100BA00000BD0000E5FFFFFF2DE9F0411F460446B0
:100BB00003260168072A01F4006004DB08B116A5CA
:100BC00005E016A503E008B115A500E015A521F084
:100BD00010002060A069C01EA0610FB1401EA0617E
:100BE0002046AFF300804FB1D4E901213846904749
:100BF000206A401C2062C01C206206E0206AFAE7DE
:100C0000D4E9012115F8010B9047761EF8D2204651
:100C1000AFF30080BDE8F0814E414E006E616E0082
:100C2000494E4600696E66002DE9F047814616463A
:100C30008AB0354878440DC88DE80D0032487844B4
:100C4000801C03AC0DC884E80D0041F69B300844BD
:100C5000372190FBF1F290FBF1F5A5F1800501FB46
:100C600012041B3C02D56442012000E00020DFF8A2
:100C700098A080460027FA44AAF1BE0A0EE0E007D9
:100C80000AD03246684607EB470101230AEB81018F
:100C900009F035F98DE8070064107F1C002CEED1B7
:100CA000194F7F44AE3F19E0E80715D007EB041059
:100CB0000DF1180A90E80E008AE80E00C068F042B4
:100CC00001D1981908903246012306A903A809F01A
:100CD00016F903AB83E807006D10641C002DE3D107
:100CE0004FF0010332466946B8F1000F03A802D065
:100CF00009F0F0F801E009F002F9C9E90001C9F8CA
:100D000008200AB0BDE8F087D49C0000007B00F00A
:100D1000800070470048704710C001207546FFF7FB
:100D2000F9FFAE4605006946534620F007008546A8
:100D300018B020B5FFF798FABDE820404FF0000644
:100D40004FF000074FF000084FF0000BAC46ACE846
:100D5000C009ACE8C009ACE8C009ACE8C00921F0A2
:100D600007018D46704710B50446AFF3008020465A
:100D7000BDE81040FFF763BA30B44FF0013C50F8C3
:100D8000042B51F8043BCCFA52F4D51A20D1FCB90B
:100D900050F8042B51F8043BCCFA52F4D51A17D171
:100DA000B4B950F8042B51F8043BCCFA52F4D51ADC
:100DB0000ED16CB950F8042B51F8043BCCFA52F424
:100DC000D51A05D1002CDAD030BC4FF000007047A6
:100DD00029BAB1FA81F111F01801D1F12000844053
:100DE000F2D1CA40CB4012F0FF0213F0FF0330BC37
:100DF000D01A7047FEE700004CF2CC20C2F201008E
:100E000000F08ABB4CF2EC30C2F2010000F084BB6F
:100E10004CF26C20C2F2010000F07EBB40F2942044
:100E2000C2F2000000F078BB40F21410C2F20000E1
:100E300000F072BB4CF28C30C2F2010000F06CBBCF
:100E400040F23420C2F2000000F066BB40F27410A1
:100E5000C2F2000000F060BB4CF20C20C2F20100B4
:100E600000F05ABB4CF22C30C2F2010000F054BB2F
:100E700040F2B400C2F2000000F04EBB4CF2AC10E5
:100E8000C2F2010000F048BB40F2D410C2F20000F0
:100E900000F042BB80B582B0002043F630010190E3
:100EA000C4F202010A6842F480020A600A6802F48D
:100EB00080020192019A00900868002240F400101C
:100EC00008600868002100F40010009000980B20D2
:100ED00000F018FE0B2000F005FE0C20002100227F
:100EE00000F010FE0C2000F0FDFD0D20002100227E
:100EF00000F008FE0D2000F0F5FD0E20002100227C
:100F000000F000FE0E2000F0EDFD0F200021002279
:100F100000F0F8FD0F2000F0E5FD10200021002278
:100F200000F0F0FD102000F0DDFD11200021002276
:100F300000F0E8FD112000F0D5FD2F200021002257
:100F400000F0E0FD2F2000F0CDFD38200021002230
:100F500000F0D8FD382000F0C5FD3A200021002225
:100F600000F0D0FD3A2000F0BDFD3B200021002222
:100F700000F0C8FD3B2000F0B5FD3C200021002220
:100F800000F0C0FD3C2000F0ADFD46200021002215
:100F900000F0B8FD462002B0BDE8804000F0A2BDE0
:100FA00070470000EFF3108072B60000F0B590F8C3
:100FB0003C20012A04BF0220F0BDD1F800C001226C
:100FC000BCF10A0F80F83C200CD31FFA8CFE4FEACC
:100FD0004E02036812FA8CF2A2F11E0403F10C0215
:100FE00006E000BF03680CEB4C0403F11002E64678
:100FF00007251668A54026EA050515608D68166860
:1010000005FA04F4344314609A6B002622F440126B
:101010009A634D680A698C69CFF6F0769F6B06EB90
:101020000256AA1A3E4303329E63D6B2B60056FA5F
:1010300082F21F269F6B964027EA06069E639E6BF0
:101040000EFA02F232439A639A68012722F4702260
:101050009A609A68C0F20F07BC4203D122F4401490
:101060000AE000BF22439A609A6822F440129A6014
:10107000CA699F6847EA02049C600A7D4F7D5E68EA
:10108000002F26F4806618BF06F580665E605F68F4
:10109000002A27F4805718BF07F58057032D5F609B
:1010A00008D0022D0AD0012D14BF03F1200203F154
:1010B000140205E003F11C0202E000BF03F1180274
:1010C000176840F6FF76B7431760CF68166842F29C
:1010D0000431C4F201013743A1F54176B3421760F0
:1010E00004D0002180F83C100846F0BDBCF1120F7E
:1010F00002D14FF4800205E02CF00102102AF0D159
:101100004FF400020B681A430A60002180F83C107B
:101110000846F0BD70B581B00022009290F83C20E6
:10112000012A03D10221084601B070BDD1F800E0C8
:101130000122BEF10A0F80F83C200BD31FFA8EF279
:101140005200066812FA8EF2A2F11E0306F10C029A
:1011500005E000BF06680EEB4E0306F110024FF0EB
:10116000070C15680CFA03F4A54315608D68146824
:1011700005FA03F3234313604968062906D801EBF7
:101180008101053906F134020AE000BF0C2901EBA8
:10119000810187BF413906F12C02233906F1300263
:1011A0001F2314688B4024EA030342F2043C1360BB
:1011B000C4F2010C1FFA8EF3146803FA01F1ACF5C6
:1011C000417321439E4211603ED1BEF1120F07D1FF
:1011D000DCF8001041F48001CCF8001034E000BFCE
:1011E0002EF0010110292FD1DCF80010BEF1100FF4
:1011F00041F40001CCF8001026D14CF20801C2F2F3
:10120000010109684DF68362C4F21B32A1FB021290
:10121000910C01EB8101490000910099A1B1009965
:1012200001390091009979B1009901390091009933
:1012300051B1009901390091009929B10099013902
:10124000009100990029EAD1002180F83C1008465D
:1012500001B070BD002804BF0120704710B50446DE
:10126000006C00283ED0206CC00645D4206C41F2B2
:1012700002118843023042F204312064C4F20101B9
:10128000086820F4403008600A6894E809101A439E
:10129000D4F810E00A604168012321F480714160B4
:1012A0004168C0F6007341EA0E214160416821F0B7
:1012B00040714160416841EA0C014160816821F45C
:1012C00000618160E168826811438160A16A82687F
:1012D000994222F070628260826813D122F04051FC
:1012E00019E000BF204600F065F80020606484F833
:1012F0003C00206CC006B9D50120002184F83C10C8
:1013000010BD00BF11438160816821F040518160B0
:10131000E16A826811438160816821F00201816085
:101320008168227E94F8203041EA42018160416860
:1013300083B141F40061416041684EF2000221F442
:1013400060414160616ACFF6FF72436802EB413150
:10135000194301E021F400614160C16A40F2000CD0
:1013600021F47001C162E2696169CFF6F07CC36A61
:101370000CEB02521A43C262826822F4007282604D
:1013800094F83020836843EA42228260826822F423
:1013900080628260826842EA81218160002060640C
:1013A000216C012262F301012164002184F83C10C8
:1013B00010BD000070B586B0044642F200002168FE
:1013C000C4F20100002681420596049602D006B0C0
:1013D00070BD00BF43F630050096C4F2020569698E
:1013E00000F5684041F480716961696901F48071B8
:1013F000009100990096296841F00401296029684C
:1014000001F00401009100990F2101910321CDE920
:10141000021601A900F012FA05F531504CF2AC1594
:10142000C2F201054FF48061C5E9000605F1100024
:101430004FF480524FF480434FF4807C80E80E10CC
:101440002846C5E90266C5E9086600F045F90028A6
:1014500018BFFFF7A7FDA563AC6306B070BD000021
:1014600070B5866D044600F0CDFA94F83510022967
:101470002ED105462068216C026822F01602026017
:10148000426922F08002426109B9A16C19B1016878
:1014900021F008010160016821F00101016000688C
:1014A000C00708D000F0AEFA401B052818D8206805
:1014B0000068C007F6D1E06D3F2101FA00F0B0608E
:1014C000012084F835000020002184F8341070BD1C
:1014D000802060650120002184F8341070BD00BFB9
:1014E00020206065032084F83500002184F8341042
:1014F00070BD000090F83510022909D1052180F84F
:1015000035100068016821F001010160002070477A
:101510008021416501207047F0B581B0044600206C
:1015200000904CF20800C2F201000268D4E9166093
:1015300048F2B51337680821C1F64E33814039426D
:10154000A2FB03250CD0226813685B0708D513683B
:1015500023F004031360B160616D41F00101616526
:1015600001218140394208D022685269120604D50F
:10157000B160616D41F00201616504218140394231
:1015800008D022681268920704D5B160616D41F0FD
:101590000401616510218140394217D0206802683A
:1015A000120713D5B16002680168520308D4C90557
:1015B00008D4016821F008010160216C21B905E01F
:1015C00008033FD4216C09B120468847E16D2020F3
:1015D00000FA01F23A4241D020680368DB063DD5AB
:1015E000B26094F835300268052B1BD122F0160248
:1015F0000260426922F080024261226C0AB9A26C48
:101600001AB1026822F0080202603F208840B060F0
:10161000012084F83500216D0020002984F8340071
:1016200052D157E00168520310D4C90512D40168A1
:1016300021F010010160012084F83500002084F8B9
:10164000340007E0A16C0029BED1BFE7080301D434
:10165000616C00E0E16B09B120468847606DC8B35A
:10166000606DC0072ED0052084F835002068A90AD7
:10167000026822F001020260009A01328A4200925E
:101680001AD80268D20717D0009A01328A42009213
:1016900012D80268D2070FD0009A01328A42009213
:1016A0000AD80268D20707D0009A01328A42009213
:1016B00002D80268D207DFD1012084F8350000206B
:1016C00084F83400E16C29B1204601B0BDE8F04057
:1016D000084700BF01B0F0BD2DE9F041044600F01D
:1016E00091F9002C4ED00546022084F835000020E8
:1016F000216884F83400086820F001000860086858
:10170000C00708D000F07EF9401B05286CD821687E
:101710000868C007F6D1086848F23F02CFF210020D
:10172000D4E90135024004F10C0E9EE8C1511A4380
:101730002A4310433043384340EA0800626A40EAD3
:101740000C00042A40EA0E0320D1D4E90A5E206B83
:101750004EEA0302104308604869BEF1000F20F012
:10176000030040EA050040F0040C15D0B8F5005F16
:1017700042D0B8F1000F51D1022D52D0012D47D0E7
:1017800055B94EE00120BDE8F08100BF0B6048690B
:1017900020F0070040EA020C6FF00F004AF6AB227F
:1017A00050FA81F0CAF6AA22A0FB02231A094AF6CF
:1017B0003C13C0F600039A5C40F2FF335F284FF001
:1017C0003F00C1F814C021EA030100FA02F088BF0B
:1017D0000431C4E9161288600023012200206365E9
:1017E00084F83520BDE8F0810322202303206365BF
:1017F00084F83520BDE8F081032DCDD801224023A7
:101800000120DFE805F0030E030500BFE7E700BF96
:10181000AEF1C070B0FA80F0400904E0032D04D3AB
:10182000BAD1CEF300600028B6D0012240230120B7
:10183000636584F83520BDE8F08100002DE9F04FA4
:1018400082B000F13E4241F6004502F1FF77C4F25A
:10185000020508224FEAB726A84208BF0722072E32
:1018600038BF4FEAB7224FF0010A002400274FF09B
:101870000008009208E000BF023708F10108202F9D
:1018800004F1040400F0B4800E680AFA08F916EABC
:10189000090FF1D0D1F804A00AF0030BABF1010657
:1018A000012E17D80322866802FA07FECA6826EAC4
:1018B0000E06BA40324382604268CAF3001522EA3B
:1018C000090205FA08F54FEA480C6FEA0E062A43AA
:1018D00042600BE00322BA40D643BBF1030FBC4683
:1018E00004D1BC464FF0030B22E000BFC2688D68F4
:1018F000324005FA0CF52A43BBF1020FC26017D142
:101900006FF0030202EA5802024404F01C030F25A0
:10191000D2F820E005FA03FA0D692EEA0A0E05FA5C
:1019200003F343EA0E031362D1F804A00AF0030B99
:1019300002680BFA0CF332401A431AF4403F4FF09E
:10194000010A026098D0002243F644030192C4F2D7
:1019500002031A6843F6004E42F480421A601A6885
:10196000C4F2010E02F480420192019A28F00302AF
:101970004FF6084C7244CFF6FF7C52F80C3004F05E
:101980000C060F25B540AB43009D05FA06F6334320
:1019900042F80C30DEF808204B6842EA090643F6AC
:1019A0000C4CDD0258BF22EA0906CEF80860C4F2EA
:1019B000010CDCF800209D0242EA090658BF22EA29
:1019C0000906CCF80060DEF804209D0342EA09060F
:1019D00058BF22EA0906CEF80460DEF80020DB03D7
:1019E00042EA090658BF22EA0906CEF8006043E73A
:1019F00002B0BDE8F08F0000002A08BF0904816131
:101A0000704700004CF6B840C2F201000068704711
:101A10004CF200004CF6B841C2F20100C2F20101E2
:101A200000780A68104408607047000080B543F6EB
:101A30000040C4F20200016841F4007101600168D5
:101A400041F480610160016841F48071016003200C
:101A500000F084F80F2000F005F800F027F80020CF
:101A600080BD000070B54CF20006C2F201064CF2D7
:101A700008013278C2F201014FF47A730968B3FBAE
:101A8000F2F20446B1FBF2F1084600F071FE0F2CB1
:101A90004FF0010508D838B94FF0FF302146002239
:101AA000002500F02FF87460284670BD82B0002039
:101AB00043F640010190C4F202014A6842F48042B8
:101AC0004A604A6802F480420192019A00900868D4
:101AD00040F080500860086800F080500090009846
:101AE00002B07047002848BF704700F01F01012274
:101AF00002FA01F14EF200124009CEF2000242F861
:101B00002010704710B54EF60C5CCEF2000CDCF8DD
:101B10000030C3F3022E8EF00704042C28BF0424E7
:101B2000BEF103034FF0FF3E0EFA04F438BF00236A
:101B3000A14399400EFA03F39A43114300F00F02B8
:101B4000043A624409010C3200F16043B0F1FF3FF6
:101B5000C8BF03F56442117010BD00004EF60C5171
:101B6000CEF200010A684FF6FF031A4060F30A2222
:101B700042F0806040F0FD70086070472DE9F04150
:101B8000002800F08B8043F60808C4F202080446DF
:101B9000D8F8F8030D4600F00700884207D288F80D
:101BA000F853D8F8F80300F00700A84276D120686F
:101BB000810717D5410705D5D8F8001041F4E05149
:101BC000C8F80010010705D5D8F8001041F46041AD
:101BD000C8F80010D8F80010A26821F0F0011143F5
:101BE000C8F80010C0073FD1D8F8F80300F007008C
:101BF000A84207D988F8F853D8F8F80300F007008E
:101C0000A8424BD12068410707D5D8F80010E268F8
:101C100021F4E0511143C8F80010000708D5D8F8A6
:101C20000000216920F4604040EAC100C8F80000CB
:101C300000F07CF8D8F800104AF62412C1F3031122
:101C4000C0F60002515C4CF2080220FA01F14CF29D
:101C50000400C2F201000068C2F201021160FFF745
:101C600001FF0020BDE8F0816068811E022907D2D3
:101C700058F8081C89015CBF0120BDE8F08111E023
:101C8000012807D158F8081C89035CBF0120BDE872
:101C9000F08107E058F8081C890703D40120BDE84B
:101CA000F08100BFD8F8001021F003010843C8F804
:101CB0000000FFF7A7FE064641F28837D8F800007B
:101CC000616800F00C00B0EB810F8DD0FFF79AFE39
:101CD000801BB842F2D90320BDE8F0814CF2080025
:101CE00043F60801C2F20100C4F20201006809686B
:101CF0004AF63412C1F38221C0F60002515CC8409A
:101D0000704700004CF2080043F60801C2F20100DF
:101D1000C4F20201006809684AF63412C1F3423184
:101D2000C0F60002515CC8407047000010B543F691
:101D30000404C4F20204606800F00C0142F20040A6
:101D40000829C0F2F40007D0042918BF10BD41F2E1
:101D50000020C0F27A0010BD216801F03F02216826
:101D600023684902C3F3881106D4A1FB00010023B4
:101D7000FEF78DFA07E000BF41F20020C0F27A00C2
:101D80004843B0FBF2F021680222C1F3014102EBAB
:101D90004101B0FBF1F010BD2DE9F04182B0002807
:101DA0006AD00446007843F60006C007C4F2020673
:101DB0000BD0B06800F00C00042840F0A18030681F
:101DC000800302D56068002856D0207880071AD595
:101DD000B06810F00C0F09D0B06800F00C000828B3
:101DE00040F0A8807068400200F1A480306880074D
:101DF00002D5E06801283FD13068216920F0F80061
:101E000040EAC10030602078000739D420784007CC
:101E10004ED4A5695DB3B06800F00C00082840F00E
:101E2000BD80012D28D07068E16900F480028A42EB
:101E300022D1216A00F03F028A421DD147F6C071CB
:101E4000626A0140B1EB821F16D1A26A0023CFF66D
:101E5000FF7303EBC23200F440316FF30F02914283
:101E60000AD1E16A00F07060B0EB016F04D100208C
:101E700002B0BDE8F08100BF012002B0BDE8F081F2
:101E80006069002840F20000C4F2472076D00121AA
:101E9000C0F8801EFFF7B6FD054600BF706F8007D3
:101EA000B4D4FFF7AFFD401B0228F7D9DDE000BF37
:101EB000306C10F080580AD100200190306C40F056
:101EC00080503064306C00F080500190019847F2EF
:101ED0000007C4F200073868C00541D4386840F4F0
:101EE00080703860FFF78EFD054600BF3868C0057A
:101EF00036D4FFF787FD401B0228F7D9B5E000BFB5
:101F0000B06800F00C00082803D1706840023FF56B
:101F100056AF6068B0F5803F07D0B0F5A02F40F015
:101F20008D80306840F480203060306840F480302C
:101F300030608DE0E068002852D00020C4F24720D5
:101F400001210160FFF75EFD054600BF3068800794
:101F50003FF552AFFFF756FD401B0228F6D984E04B
:101F6000A068012805D005284ED1306F40F004004C
:101F70003067306F40F0010030674FE00021C0F85B
:101F8000801EFFF73FFD0546706F80077FF53EAF6F
:101F9000FFF738FD401B0228F6D966E00027C4F29F
:101FA000472700203866FFF72DFD022D05460BD18F
:101FB000306880015ED5FFF725FD401B02284FF0F9
:101FC0000300F5D954E700BF306880017FF54FAFBB
:101FD000FFF718FD401B02284FF00300F4D947E734
:101FE0000020C4F2472000210160FFF70BFD0546E9
:101FF000306880077FF507AFFFF704FD401B02281C
:102000004FF00300F4D933E7316F002821F00101CC
:102010003167316F21F0040131674DD0FFF7F2FCD9
:10202000054641F2883700BF306F800756D4FFF76E
:10203000E9FC401BB842F7D917E000BF316800281F
:1020400021F480313160316821F4802131604FD03A
:10205000FFF7D8FC054600BF306880033FF5B5AEFA
:10206000FFF7D0FC401B6428F6D9032002B0BDE87E
:10207000F08100BF04F11C052FCD08430021CFF6ED
:10208000FF7140EA821001EBC3316FF30F0140EAA8
:1020900005600843706001203866FFF7B3FC044612
:1020A000306880013FF5E3AEFFF7ACFC001B02286F
:1020B0004FF00300F4D9DBE6FFF7A4FC054641F23C
:1020C000883700BF306F800708D5FFF79BFC401BA7
:1020D000B8424FF00300F5D9CAE600BFB8F1000FCF
:1020E0007FF497AE306C20F08050306491E600BFF2
:1020F000FFF788FC054600BF306880037FF565AEBA
:10210000FFF780FC401B64284FF00300F4D9AFE6D2
:1021100070470000B0B582B004460068416882682C
:1021200012F0400305D112F0010518BF11F040056F
:1021300012D1950708D511F0800505D0616C2046B5
:1021400002B0BDE8B040084712F4B07F18BF11F0EC
:10215000200507D102B0B0BD216C204602B0BDE819
:10216000B0400847BBB194F85130032B08D100218F
:102170000191C168019180680190019802B0B0BDE1
:10218000636D43F00403636500230193C368019307
:1021900083680193019B12F0200302F4807203D143
:1021A0008AB9626DDAB9D5E7636D43F001036365FF
:1021B0000023019383680193036823F040030360C5
:1021C000019B002AEDD0626D42F008026265002298
:1021D000019282680192019A626D002ABAD0426827
:1021E000890722F0E00242604FF0010284F851209A
:1021F00020D0416844F28D0521F003014160E06C7C
:10220000C0F6000538B10565FFF774F918B1606DC7
:1022100040F040006065A06C00289BD00565FFF78A
:1022200069F900283FF496AF606D40F040006065AA
:1022300002B0B0BD204602B0BDE8B040FFF768BFB5
:10224000002804BF0120704710B50446406A28B139
:102250000020206104F1140006E000BF6068B0F5C2
:10226000827F03D004F11C000021016094F851002A
:1022700028B9002084F85000204600F045F80220DC
:1022800084F8510094E8071001F48271036802F4A5
:10229000044223F040030360236911440CF40062FC
:1022A000114403F002026369114403F00102D4F8FF
:1022B00018E001EB020CE1690EF40072944401F0A5
:1022C0003801226A8C44A16A02F0800242EA0C02C0
:1022D00001F400531A430260636A042202EA1E42B8
:1022E00003F010031A444260B1F5005F04BFA18DF2
:1022F0000161C16921F40061C161002001216065B3
:1023000084F8511010BD00002DE9F04387B0044659
:10231000216843F60002C4F2000200209142CDE998
:102320000500CDE90300029074D043F20000C4F22E
:102330000100814240F09880002643F6300001966B
:10234000C4F20200416946F2104841F480514161F3
:102350004169C4F2020801F480510191019901968A
:10236000016841F001010160006802A900F001006C
:1023700001900198E02002900220CDE9030603209D
:102380000590052006900020C4F20200FFF756FADF
:102390004CF20C25C2F201054FF0C0674FF4806982
:1023A0002846C5E90087C5E90266C5E90496C5E97E
:1023B0000666C5E90866FFF78FF9002818BFFEF723
:1023C000F1FDE564AC6340F2B40508F14800C2F2E7
:1023D00000054021C5E9000705F1080080E8420238
:1023E0002846C5E90566C5E907666E62FFF774F918
:1023F000002818BFFEF7D6FD232000210022A56487
:10240000AC63FFF77FFB2320FFF76CFB07B0BDE851
:10241000F08300BF43F630010190C4F202010A6963
:1024200042F480420A610A6902F480420192019AF0
:1024300001900A6842F002020A60096801F0020194
:10244000019101994FF4604102910221CDE90310FD
:1024500003200590052006900020C4F2020000F53C
:10246000806002A9FFF7EAF907B0BDE8F083000039
:102470002DE9F04784B004460020029094F8500003
:10248000012805D14FF0020A504604B0BDE8F0879C
:1024900001201D4617460E4684F85000FFF7B2FA99
:1024A00094F85110814601290CD06068B0F5827F04
:1024B00040F08C80A0684FF0020A002808BF042971
:1024C00040F08680002E4FF0010A18BF002F00F068
:1024D0007F80002D7CD094F85100002104281CBF7F
:1024E000052084F851006165A763E587A587266309
:1024F000E586A06AA586B0F5005F20682164616466
:1025000007D1016821F400510160016841F40051D4
:1025100001600168490603D4016841F0400101608F
:1025200061686B1EE268B1FA81F1B3FA83F3DDF8FA
:10253000308049095B09B2F5006F41EA030151D1CE
:1025400031B136F8021BC1602663E08E0138E086A7
:10255000012608F1010500BFE08E18B9E08F0028C0
:1025600000F0888020688168890716D5E18EA1B1C6
:10257000012E12D1216B31F8022BC2602163E18E52
:102580000139E186E18E39B9A16AB1F5005F03D165
:10259000016841F48051016000268168C9070AD0B2
:1025A000E18F41B1C068A16B012621F8020BA16344
:1025B000E08F0138E087FFF725FA002DCCD0A0EBA3
:1025C00009004045C8D34FF0030A01E04FF0020A6A
:1025D000012084F85100002084F85000504604B0D7
:1025E000BDE8F08739B131780173206B0130206389
:1025F000E08E0138E086012608F10105E08E08B979
:10260000E08FB8B320688168890718D5E18EB1B131
:10261000012E14D1216B09780173206B01302063E6
:10262000E08E0138E086E08E40B9A06AB0F5005F28
:1026300004D12068016841F48051016000262068BF
:102640008168C9070BD0E18F49B1C068A16B012631
:102650000870A06B0130A063E08F0138E087FFF7BE
:10266000D1F9002DCAD0A0EB09004045C6D34FF0E8
:10267000030AADE7A06AB0F5005F0FD12046012143
:1026800001224346CDF8009001F006FD40B1606D97
:102690004FF0030A40F00200606599E7206803E00C
:1026A0002068C168029102998168C90602D44FF07E
:1026B000000A08E0616D4FF0010A41F00201616516
:1026C0004FF6EF7181604CF20801C2F20101096816
:1026D00049F68172C1F25E62A1FB0212510D4FF404
:1026E0007A72514303916168B1F5827F12D120461D
:1026F000802100224346CDF8009001F0CDFC48B384
:10270000606D4FF0010A40F0200060652020606598
:102710005EE700BF0399E9B103990139039181682C
:10272000090617D50399A9B1039901390391816865
:1027300009060FD5039969B103990139039181689D
:10274000090607D5039929B10399013903918168D5
:102750000906DFD4A06800287FF43AAF002001907A
:102760002068C168019180680190019830E70000FD
:10277000411E0020B0EB116F1CBF012070474EF2CC
:102780001002CEF2000251604EF62351CEF200014B
:10279000F0230B70072190601160704770470000B4
:1027A00070470000B0B590F83C20012A04BF022019
:1027B000B0BD01F108053CCDD1E900CE23F47C5336
:1027C00022F470521A432EF4F0431A432CF4E043DF
:1027D0001A4324F4C0431A432A43C96922F48042AD
:1027E000036811435964002180F83C100846B0BDCD
:1027F00010B590F83C20012A4FF0020251D080F829
:102800003D200268D2F804E0D2F808C00C682EF02F
:102810007003234341F2FF74C4F20004A2425360E8
:102820000EDC40F2FF73C4F200039A4216DCB2F1F0
:10283000804F2BD040F20043C4F2000324E000BFDD
:1028400040F2FF33C4F201039A4213DC41F6000365
:10285000C4F200039A4219D0002313E040F60003AB
:10286000C4F200039A4211D040F60043C4F20003C0
:102870000AE000BF44F20003C4F201039A4205D00B
:1028800040F20043C4F201039A4204D149682CF09B
:102890008003194391600121002280F83D1080F8E7
:1028A0003C20104610BD0000002804BF01207047E6
:1028B00010B5044690F83D0028B9002084F83C008B
:1028C000204600F01FF8022084F83D002068211DFA
:1028D00001F04AFF012084F8460084F83E0084F8A5
:1028E0003F0084F8400084F8410084F8420084F8F6
:1028F000430084F8440084F8450084F83D0000203B
:1029000010BD000080B582B0006841F20001C4F241
:10291000000188421CBF02B080BD0020019043F638
:102920004000C4F202000168002241F01001016081
:102930000068002100F01000019001983620FFF798
:10294000E1F8362002B0BDE88040FFF7CBB80000C8
:1029500090F83D1001291CBF01207047022180F82A
:102960003D10006841F2FF72C168C4F2000290425B
:1029700041F00101C1600DDC40F2FF71C4F20001C1
:10298000884215DCB0F1804F2AD040F20041C4F2F9
:10299000000123E040F2FF31C4F20101884213DC60
:1029A00041F60001C4F20001884219D0002113E071
:1029B00040F60001C4F20001884211D040F6004107
:1029C000C4F200010AE000BF44F20001C4F20101B8
:1029D000884205D040F20041C4F20101884206D18C
:1029E000816801F00701062904BF002070470168D3
:1029F00041F00101016000207047000070470000B5
:102A000010B5016804460869800744BFC8685FEADA
:102A1000807039D40869400744BFC8685FEA4070D5
:102A20003ED40869000744BFC8685FEA007045D417
:102A30000869C00644BFC8685FEAC0604AD4086934
:102A4000C0071CBFC8685FEAC07051D108690006A2
:102A500044BFC8685FEA006052D40869400644BFBA
:102A6000C8685FEA406053D40869800646BFC868FA
:102A70005FEA806010BD6FF0200220460A61BDE869
:102A80001040FFF78DBE00BF6FF00200086101200B
:102A900020778869800743D02046FFF7AFFF45E0E5
:102AA0006FF00400086102202077886910F4407FED
:102AB00040D02046FFF7A2FF42E000BF6FF00800C1
:102AC000086104202077C86980073DD02046FFF7C1
:102AD00095FF3FE06FF01000086108202077C8697B
:102AE00010F4407F3AD02046FFF788FF3CE000BF5B
:102AF0006FF001000861204600F080FA2168A5E728
:102B00006FF0800008612046FFF748FE2168A4E7C7
:102B10006FF040000861204600F084FA2168A3E7C6
:102B2000204600F025F8204600F0DCF9216800205E
:102B300020776FE7204600F01BF8204600F0D2F91E
:102B40002168002020776CE7204600F011F820462D
:102B500000F0C8F921680020207769E7204600F0DE
:102B600007F8204600F0BEF921680020207766E7CC
:102B700070470000002804BF0120704710B50446CC
:102B800090F83D0028B9002084F83C00204600F071
:102B90001FF8022084F83D002068211D01F0E4FDAB
:102BA000012084F8460084F83E0084F83F0084F851
:102BB000400084F8410084F8420084F8430084F81F
:102BC000440084F8450084F83D00002010BD00005A
:102BD000704700002DE9F04190F83C30012B04BF14
:102BE0000220BDE8F0814FEAB202032A00F2FC8025
:102BF000DFE802F0023E7EBE036840F200471A6A38
:102C000043F4806522F001021A621C6A1A46D3F866
:102C100004E052F818CF8E6824F00204C4F20107D1
:102C2000BD4244EA060405D1CE6824F00C0426F027
:102C3000040634430E68BD4207D1D1E905572EF48E
:102C4000407E45EA0E0545EA070E2CF07307374330
:102C5000C3F804E09F614F6809695F631C629F6964
:102C600047F008079F619F6927F004079F61B1E063
:102C7000036840F200481A6A43F4806522F01002AB
:102C80001A621C6A1A46D3F804E052F818CF8F680B
:102C900024F02004C4F20108454544EA071407D192
:102CA000CF686FF0400624F0C00406EA07163443EC
:102CB0000F68454507D1D1E905562EF4406E4EEA1E
:102CC000850545EA860E2CF4E64646EA0727C3F852
:102CD00004E09F614F6809699F631C629F6947F424
:102CE00000679F619F6927F480679F6171E000BF63
:102CF000036840F200481A6A43F4806522F4807247
:102D00001A621C6A1A46D3F804E052F81CCF8F6886
:102D100024F40074C4F20108454544EA072408D1AC
:102D2000CF6840F2FF463F0224F4406427EA0606DB
:102D300034430F68454507D1D1E905562EF4405E6E
:102D40004EEA051545EA061E2CF073063743C3F814
:102D500004E0DF614F680969DF631C62DF6947F0E7
:102D60000807DF61DF6927F00407DF6132E000BF99
:102D7000036840F200451A6A43F4806722F48052E7
:102D80001A621A46D3F820C05C6852F81CEFD1F8DA
:102D900000808E68C4F20105AF4204D14D6924F46D
:102DA000804444EA85142CF4005747EA06372EF491
:102DB000E64646EA08265C60DE614E6809691E64E4
:102DC0001F62DF6947F40067DF61DF6927F480670E
:102DD000DF6109021368194311600021002280F8A5
:102DE0003C200846BDE8F0810121002280F83C200B
:102DF0000846BDE8F0810000002804BF01207047AC
:102E000010B5044690F83D0028B9002084F83C0035
:102E1000204600F01FF8022084F83D002068211DA4
:102E200001F0A2FC012084F8460084F83E0084F8FA
:102E30003F0084F8400084F8410084F8420084F8A0
:102E4000430084F8440084F8450084F83D000020E5
:102E500010BD000083B0006844F20001C4F201011B
:102E600088421BD040F20041C4F20101884227D0C1
:102E70000021C4F2010188421FD10020029043F6D4
:102E80004400C4F20200016841F0010101600068E1
:102E900000F001000290029803B0704700200090FB
:102EA00043F64400C4F20200016841F4803101603D
:102EB000006800F480300090009803B0704700BFB5
:102EC0000020019043F64400C4F20200016841F082
:102ED00002010160006800F002000190019803B057
:102EE000704700007047000041B1082910D0042944
:102EF00014BF00F1410200F13F020BE090F83E20C8
:102F0000012A1CBF01207047022280F83E2013E0F6
:102F100000F140021278012A1CBF012070470222F2
:102F2000082907D0042914BF80F8412080F83F20E9
:102F300002E000BF80F84020006801F01F0101227C
:102F4000036A02FA01F123EA01020262026A1143F2
:102F500041F2FF72C4F20002904201620CDC40F2C6
:102F6000FF71C4F20001884214DCB0F1804F37D009
:102F700040F2004116E000BF40F2FF31C4F201010F
:102F8000884215DC41F60001C4F20001884227D0D6
:102F9000002115E040F60001C4F2000188421FD074
:102FA00040F60041C4F20001884219D01FE000BF82
:102FB00044F20001C4F20101884211D040F2004104
:102FC000C4F20101884212D1416C40F2004340F446
:102FD0008062C4F2010341F400419A42416406D187
:102FE000816801F00701062904BF002070470168CD
:102FF00041F001010160002070470000006841F2CB
:103000000001C4F20001884218BF70474CF6B000BE
:10301000C2F20100D0E90012013142F10002C0E920
:1030200000127047704700007047000070470000B2
:10303000B0B582B0044600680168C368426901F017
:103040002F05202D03F0200506D12DB1204602B01A
:10305000BDE8B04001F074BC5FEA017C1EBF02F025
:10306000010E03F4907212EB0E0255D1226B012A6D
:1030700005D111F0100218BF13F0100236D10A0664
:1030800022D513F080021FD094F83D10212941D1A0
:10309000A168B1F5805F03D12169002900F06C823D
:1030A000216A4A1C226209784160E18C01390A04D4
:1030B000E1842FD1C16821F08001C160C16841F075
:1030C0004001C16002B0B0BD490623D513F04001F4
:1030D00020D0C16821F04001C1602021204684F841
:1030E0003D1002B0BDE8B04000F086BE0021019165
:1030F000016801914168019101994169490600F116
:103100008B80A18DE28DE38D002B1CBF891A5FEAB5
:1031100001420CD102B0B0BDCA0718BF13F48072CF
:1031200040F032814A0700F135813AE1206850E8E9
:10313000030F226820F4907042E80303DBB120689B
:1031400050E8030F226820F4907042E8030393B123
:10315000206850E8030F226820F4907042E80303CF
:103160004BB1206850E8030F226820F4907042E8C9
:103170000303002BDAD1206850E8050F226820F005
:10318000010042E80503DBB1206850E8050F226822
:1031900020F0010042E8050393B1206850E8050FD4
:1031A000226820F0010042E805034BB1206850E896
:1031B000050F226820F0010042E80503002BDAD158
:1031C000202084F83E0000202063206850E8030F90
:1031D000226820F0100042E80303DBB1206850E8C9
:1031E000030F226820F0100042E8030393B1206827
:1031F00050E8030F226820F0100042E803034BB1AF
:10320000206850E8030F226820F0100042E8030312
:10321000002BDAD189B2B0E0A26B11684B689DB285
:10322000002D3FF477AFA18D8D42BFF473AFE385DE
:10323000D269B2F5807F00F09D8050E8030F2168CD
:1032400020F4807041E80302E2B1206850E8030FE7
:10325000216820F4807041E803029AB1206850E8A8
:10326000030F216820F4807041E8030252B1206806
:1032700050E8030F216820F4807041E803020AB18E
:103280002068DAE7206850E8050F216820F0010087
:1032900041E80502DAB1206850E8050F216820F006
:1032A000010041E8050292B1206850E8050F21684D
:1032B00020F0010041E805024AB1206850E8050FFE
:1032C000216820F0010041E80502002ADAD12068D7
:1032D00050E8050F216820F0400041E80502DAB10E
:1032E000206850E8050F216820F0400041E8050201
:1032F00092B1206850E8050F216820F0400041E8B5
:1033000005024AB1206850E8050F216820F040000E
:1033100041E80502002ADAD1202084F83E0000208E
:103320002063206850E8030F216820F0100041E876
:103330000302DAB1206850E8030F216820F0100082
:1033400041E8030292B1206850E8030F216820F0A1
:10335000100041E803024AB1206850E8030F2168D9
:1033600020F0100041E80302002ADAD1A06BFEF73A
:1033700077F8A18DE08D081A81B2204602B0BDE831
:10338000B040FFF751BE00BF226C42F00102226440
:103390004A0706D5BEF1000F03D0226C42F00202AC
:1033A00022648A0706D5BEF1000F03D0226C42F0DA
:1033B00004022264BCF1000F06D555EA0E0203D0C8
:1033C000226C42F008022264226C002A3FF4A2AE72
:1033D00011F0200118BF002D03D0204601F0B0FAF3
:1033E00020684169226C01F0400102F0080289184E
:1033F00000F0A28050E8030F216820F4907041E8AB
:103400000302C2B3206850E8030F216820F49070D3
:1034100041E803027AB3206850E8030F216820F4E2
:10342000907041E8030232B3206850E8030F21682E
:1034300020F4907041E80302EAB12068DAE700BFA7
:10344000206850E8050F216820F0010041E80502DE
:10345000DAB1206850E8050F216820F0010041E84A
:10346000050292B1206850E8050F216820F00100A4
:1034700041E805024AB1206850E8050F216820F0B4
:10348000010041E80502002ADAD1206B012824D18D
:10349000206850E8030F216820F0100041E8030283
:1034A000DAB1206850E8030F216820F0100041E8ED
:1034B000030292B1206850E8030F216820F0100049
:1034C00041E803024AB1206850E8030F216820F068
:1034D000100041E80302002ADAD1202084F83E00DF
:1034E000002020632068416949063FD550E8050F58
:1034F000216820F0400041E805022AB3206850E826
:10350000050F216820F0400041E80502E2B1206883
:1035100050E8050F216820F0400041E805029AB10B
:10352000206850E8050F216820F0400041E80502BE
:1035300052B12068DAE700BF2046FFF777FD002090
:10354000206402B0B0BD00BFA06B78B144F6351165
:10355000C0F600010165FDF7CDFF00283FF4DAADAC
:10356000A06B016D02B0BDE8B0400847204602B034
:10357000BDE8B040FFF75ABD216A31F8022B6FF366
:103580005F224260216290E5002804BF012070475D
:1035900010B5044690F83D0028B9002084F83C009E
:1035A000204600F021F8242084F83D002068C168FE
:1035B00021F40051C160204601F042FA20680169FF
:1035C00021F490410161416921F02A014161C16802
:1035D00041F40051C16000202021206484F83D1096
:1035E00084F83E1010BD00002DE9F04F87B004466E
:1035F000006844F6FF31C4F2000188424FF0000138
:103600000691CDE90411CDE9021140F3978041F212
:103610000001C4F20101884200F0208145F200015E
:10362000C4F20001884200F09B8144F60041C4F2DC
:103630000001884240F01D82002743F630000197C8
:10364000C4F20200016902AE41F400210161016986
:103650004FF0020A01F400210191019901970168DC
:103660004FF0030B41F00401016001684FF00808BE
:1036700001F00401019101990197016841F00401F1
:1036800001600068314600F00400019001984FF499
:10369000006002900020C4F2020000F50065284698
:1036A000CDE903A7CDF814B0CDF81880FEF7C6F821
:1036B0004FF48069CDF8188046F21008284631464C
:1036C000CDE9029ACDE9047BC4F20208FEF7B6F810
:1036D0004CF26C2508F13000C2F201054FF0006693
:1036E00085E8C1002846C5E90379C5E90577C5E93C
:1036F00007776F62FDF7F0FF002818BFFDF752FC57
:10370000A563AC6340F2141508F16000C2F2000535
:103710004021C5E9000605F1080080E8820228463C
:10372000C5E90577C5E907776F62FDF7D5FF002882
:103730004FF0340640F0918191E100BF44F2004126
:10374000C4F20001884200F0978144F60001C4F2FF
:103750000001884240F08D81002743F63000019738
:10376000C4F20200016902AE41F4802101610169E5
:103770004FF0020A01F4802101910199019701683B
:103780004FF0030B41F00201016001684FF00708A0
:1037900001F00201019101990197016841F00201D4
:1037A00001600068314600F00200019001984FF47A
:1037B000006002900020C4F2020000F580652846F7
:1037C000CDE903A7CDF814B0CDF81880FEF736F890
:1037D0004FF48069CDF8188046F21008284631462B
:1037E000CDE9029ACDE9047BC4F20208FEF726F87F
:1037F0004CF2EC3508F11800C2F201054FF00066FA
:1038000085E8C1002846C5E90379C5E90577C5E91A
:1038100007776F62FDF760FF002818BFFDF7C2FB56
:10382000A563AC6340F2942508F14800C2F200059C
:103830004021C5E9000605F1080080E8820228461B
:10384000C5E90577C5E907776F62FDF745FF0028F1
:103850004FF0270640F0018101E100BF002743F649
:1038600030000197C4F202004169002541F01001C7
:1038700041614169C4F2020501F010010191019911
:103880000197016802AE41F00101016001684FF447
:10389000806801F0010101910199019701684FF0E1
:1038A000020A41F00101016000684FF0030B00F0D3
:1038B0000100019001984FF0070928463146CDF8E4
:1038C0000880CDE903A7CDF814B0CDF81890FDF726
:1038D000B5FF4FF40070CDE9020ACDF8189046F21A
:1038E000100928463146CDE9047BC4F20209FDF7F0
:1038F000A5FF4CF22C3509F58660C2F201054FF0A8
:10390000006685E8C1002846C5E90378C5E9057762
:10391000C5E907776F62FDF7DFFE002818BFFDF7E6
:1039200041FBA563AC6340F2D41509F59560C2F282
:1039300000054021C5E9000605F1080080E8820184
:103940002846C5E90577C5E907776F62FDF7C4FE2C
:1039500000284FF0250618BFFDF724FB7FE000BFCD
:10396000002643F630000196C4F2020001690027E8
:1039700041F4801101610169C4F2020701F4801170
:10398000019101990196016802AD41F004010160C5
:10399000016846F2100801F00401019101990196B5
:1039A00001684FF0020941F00801016000684FF022
:1039B000030A00F0080001900198042002904FF0E3
:1039C000080B07F540602946C4F20208CDE90396CA
:1039D000CDF814A0CDF818B0FDF730FF4FF48050AB
:1039E000CDE9020904A880E8400C07F500602946EB
:1039F000FDF724FF4CF2CC25C2F201054FF0006721
:103A00004FF480692846C5E90087C5E90266C5E923
:103A10000496C5E90666C5E90866FDF75DFE00285F
:103A200018BFFDF7BFFAA563AC6340F2741508F147
:103A3000A800C2F200054021C5E9000705F1080011
:103A400080E842022846C5E90566C5E907666E6258
:103A5000FDF742FE4FF0350608B1FDF7A3FA3046F8
:103A6000002100226563AC63FEF74CF83046FEF798
:103A700039F807B0BDE8F08F002743F63000019712
:103A8000C4F202000169002541F4003101610169BD
:103A9000C4F2020501F40031019101990197016816
:103AA00002AE41F001010160016846F2100801F028
:103AB000010101910199019701684FF0020941F05C
:103AC0000101016000684FF0030A00F0010001905D
:103AD0000198082002904FF0070B28463146C4F2A7
:103AE0000208CDE90397CDF814A0CDF818B0FDF782
:103AF000A5FE0420CDE9020904A880E8800C284630
:103B00003146FDF79BFE4CF28C3508F17800C2F28D
:103B100001054FF000664FF4806985E8C100284632
:103B2000C5E90379C5E90577C5E907776F62FDF750
:103B3000D3FD002818BFFDF735FAA563AC6340F24A
:103B4000342508F19000C2F200054021C5E90006C5
:103B500005F1080080E882022846C5E90577C5E935
:103B600007776F62FDF7B8FD00284FF026067FF457
:103B700074AF74E7704700002DE9F04381B004464C
:103B800090F83D0020280DD10F4600294FF001008C
:103B900000F0DD801646002A00F0D98094F83C0041
:103BA000012803D1022001B0BDE8F083012084F890
:103BB0003C004FF0000921201D46C4F8409084F8D5
:103BC0003D00FDF71FFFA684E684A1680646B1F517
:103BD000805F07D1206900281CBF38464F46B84691
:103BE000074601E04FF0000884F83C90E18C206823
:103BF000002900F08B8005F101090AE047B317F8AE
:103C0000011B4160E18C0139E184E18C002900F065
:103C10007D8001680906F1D4B9F1000F0AD0EDB139
:103C2000FDF7F0FE801BA84218D82068016809063D
:103C3000F6D5E3E701680906E0D4016809065CBF30
:103C400001685FEA0161D9D401680906F2D5D5E7B8
:103C500038F8021B00276FF35F21D2E7206850E895
:103C6000030F216820F4D07041E80302BAB3206842
:103C700050E8030F216820F4D07041E8030272B3CA
:103C8000206850E8030F216820F4D07041E8030257
:103C90002AB3206850E8030F216820F4D07041E86F
:103CA0000302002ADAD11AE0206850E8050F2168E3
:103CB00020F0010041E80502DAB1206850E8050F64
:103CC000216820F0010041E8050292B1206850E827
:103CD000050F216820F0010041E805024AB1206883
:103CE00050E8050F216820F0010041E80502002A94
:103CF000DAD1202084F83D0084F83E00002084F8CA
:103D00003C00032001B0BDE8F08300BF0168490614
:103D100019D4FDB1691C0DD10168490613D401689D
:103D200049065CBF01685FEA41610CD4016849063D
:103D3000F2D508E0FDF766FE801BA8420AD820688D
:103D400000684006F6D5202084F83D00002001B030
:103D5000BDE8F083206850E8030F216820F4D0709C
:103D600041E80302E2B3206850E8030F216820F421
:103D7000D07041E803029AB3206850E8030F21682D
:103D800020F4D07041E8030252B3206850E8030FDA
:103D9000216820F4D07041E80302002ADAD11FE044
:103DA000206850E8050F216820F0010041E8050275
:103DB000002A9ED0206850E8050F216820F00100FD
:103DC00041E80502002A3FF494AF206850E8050F4F
:103DD000216820F0010041E80502002A3FF489AF84
:103DE000206850E8050F216820F0010041E8050235
:103DF000002AD5D17DE7000070470000FEE70000F3
:103E0000B0B58CB04CF2641001230024C2F2010062
:103E100042F20001C0F60073C4F201010125C0E9BD
:103E20000A3404230B94CDE90644CDE90444CDE9DA
:103E30000244CDE900444FF48032057680F82040FA
:103E4000C36180F8304080E81600C0E90345456151
:103E5000FDF700FA002818BFFDF7A4F80A20CDE905
:103E600008054CF26410C2F2010008A90A94FDF79B
:103E700051F9002818BFFDF795F80B200890022093
:103E800009904CF26410C2F2010008A9FDF742F952
:103E9000002818BFFDF786F80C2008900320099031
:103EA0004CF26410C2F2010008A9FDF733F90028B2
:103EB00018BFFDF777F80D2008904CF26410042429
:103EC000C2F2010008A90994FDF724F9002818BFDF
:103ED000FDF768F80A2000900120CDE901000020DC
:103EE00001210790C0F20F01ADF8140003904CF2CD
:103EF00064100691C2F2010069460494FDF756F879
:103F0000002818BFFDF74EF8022001904CF2641013
:103F1000C2F201006946FDF749F8002818BFFDF715
:103F200041F8032001904CF26410C2F2010069468E
:103F3000FDF73CF8002818BFFDF734F80420019085
:103F40004CF26410C2F201006946FDF72FF8002818
:103F500018BFFDF727F80CB0B0BD0000FEE7000069
:103F6000FEE700000000000000000000000000006C
:103F7000EFF30980BFF36F8F154B1A681EF0100F17
:103F800008BF20ED108A20E9F04F10602DE90900EC
:103F90004FF0500080F31188BFF34F8FBFF36F8F46
:103FA00004F03AFD4FF0000080F31188BDE80900ED
:103FB00019680868B0E8F04F1EF0100F08BFB0ECA9
:103FC000108A80F30988BFF36F8F704700BF00BF6E
:103FD00070C0012080B54CF24C4043F20001C2F2A7
:103FE0000100C4F201014FF48272002380E80E0048
:103FF00040F2F421C2F2000102224FF0010CC1E9AB
:10400000042C4FF400714FF00A0C00F1180EC3603D
:1040100008228EE80E00C0E90933C0F82CC0FEF774
:104020000FF9002808BF80BDBDE88040FCF7BABF8B
:104030004CF24C40C2F20100FEF76CB810B540F2F1
:10404000F42043F60001C2F20000C4F200014FF474
:104050008272002380E80E0000F10C014FF0020C88
:104060004FF0010E4FF4007481E808500A21C0E9B6
:104070000643C0E90833C0E90A31FEF7E1F8002839
:1040800008BF10BDBDE81040FCF78CBF806B00215D
:10409000C187C186FEF73CB82DE9F04381B0089C8A
:1040A000984615460E468146FDF7ACFC201A00EBFB
:1040B0000804FDF7A7FC4CF20801C2F201010968EF
:1040C000C1F3CB3161430091D9F800108A683240C6
:1040D000921BB2FA82F25209AA423DD0074618F169
:1040E000010031D0FDF78EFCC01BA04238D20098F1
:1040F00000990028A1F101010091D9F80010896808
:1041000008BF044601EA0600801BB0FA80F04009AF
:10411000A842E7D120E000BF88683040801BB0FA99
:1041200080F04009A84217D088683040801BB0FA60
:1041300080F04009A8420FD088683040801BB0FA58
:1041400080F04009A84207D088683040801BB0FA50
:1041500080F04009A842DFD1002001B0BDE8F08323
:10416000D9E900014268B1F5827F22F0E0024260A5
:104170000BD1D9F80810B1F5004F02D0B1F5806F1E
:1041800003D1016821F040010160D9F82810B1F590
:10419000005F07D1016821F400510160016841F41A
:1041A00000510160012089F85100002089F8500079
:1041B000032001B0BDE8F08380B582B08DF8071010
:1041C0004FF6FF7C0DF107010DF106020123CDF83A
:1041D00000C0FEF74DF99DF8060002B080BD00005A
:1041E000074B19680868B0E8F04F80F30988BFF3FF
:1041F0006F8F4FF0000080F31188704700BF00BF41
:1042000070C0012080B505F0FBF9012818BF04F04B
:10421000FDFCBDE88040FDF7FBBB00004EF688507A
:10422000CEF20000016841F47001016070470000A7
:1042300070B598B041F20004C4F202044CF2A440FC
:104240000021A4F58832C2F20100532341F28736DF
:104250001191CDE90F11CDE90D11CDE90B11CDE98A
:104260000911CDE90711CDE90511CDE90311CDE91A
:104270000111C0E90023C0E90216C0E904118161FF
:10428000FEF7BAFD002818BFFCF78CFE4CF2A440E4
:10429000C2F2010010A9FEF7ABFA002818BFFCF724
:1042A00081FE602009900020CDE90A00CDE90C00D4
:1042B000CDE90E004CF2A440C2F2010009A900228F
:1042C000FEF788FC002818BFFCF76CFE4CF2A440F7
:1042D000C2F2010009A90422FEF77CFC002818BFE5
:1042E000FCF760FE4CF2A440C2F2010009A90822CA
:1042F000FEF770FC002818BFFCF754FE4CF2A440F7
:10430000C2F2010009A90C22FEF764FC002818BFC4
:10431000FCF748FE4CF2A4454FF40050C2F20105F0
:104320000026069001A928460596CDE90366CDE949
:1043300001660896FEF736FA002818BFFCF732FE31
:10434000286844F20001C4F20101884213961FD08C
:1043500040F20041C4F2010188422BD00021C4F296
:104360000101884245D10020129043F63000C4F28A
:104370000200016841F010010160006800F01000C7
:10438000129012984FF4D4401390012027E000BF00
:104390000020129043F63000C4F20200016841F0A0
:1043A00010010160006800F0100012901298602067
:1043B00013E000BF0020129043F63000C4F2020068
:1043C0000168A4F5006441F004010160006800F098
:1043D0000400129012984FF4707013900320022181
:1043E00014910021CDE91511179013A92046FDF76E
:1043F00025FA18B070BD000080B582B040F24C3094
:104400000021C2F2000041F2000240F2E73CCDE997
:104410000011C4F200025323C0E9021C8021C0E94C
:1044200000238161FEF740FA002818BFFCF7BAFDAF
:1044300040F24C30C2F200006946FEF7D9F900287C
:1044400018BFFCF7AFFD02B080BD000040F24C3059
:10445000C2F20000FEF7D4BA70B598B041F2000481
:10446000C4F2020440F294300021A4F58632C2F274
:104470000000532341F287361191CDE90F11CDE9A8
:104480000D11CDE90B11CDE90911CDE90711CDE9E8
:104490000511CDE90311CDE90111C0E90023C0E9FF
:1044A0000216C0E904118161FEF7A6FC002818BFBE
:1044B000FCF778FD40F29430C2F20000FEF75AFBA0
:1044C000002818BFFCF76EFD40F294300025C2F2C0
:1044D000000010A9CDE91055FEF78AF9002818BF91
:1044E000FCF760FD6020CDE9090540F29430C2F28E
:1044F000000009A90022CDE90B55CDE90D550F9516
:10450000FEF768FB002818BFFCF74CFD40F2943022
:10451000C2F2000009A90422FEF75CFB002818BFC4
:10452000FCF740FD40F29430C2F2000009A90822D5
:10453000FEF750FB002818BFFCF734FD40F2943022
:10454000C2F2000009A90C22FEF744FB002818BFA4
:10455000FCF728FD40F294354FF40050C2F20005FC
:104560000026069001A928460596CDE90366CDE907
:1045700001660896FEF716F9002818BFFCF712FD31
:10458000286844F20001C4F20101884213961FD04A
:1045900040F20041C4F2010188422BD00021C4F254
:1045A0000101884245D10020129043F63000C4F248
:1045B0000200016841F010010160006800F0100085
:1045C000129012984FF4D4401390012027E000BFBE
:1045D0000020129043F63000C4F20200016841F05E
:1045E00010010160006800F0100012901298602025
:1045F00013E000BF0020129043F63000C4F2020026
:104600000168A4F5006441F004010160006800F055
:104610000400129012984FF470701390032002213E
:1046200014910021CDE91511179013A92046FDF72B
:1046300005F918B070BD0000B0B58EB041F20004AD
:10464000C4F202044CF2EC400025A4F55041C2F241
:10465000010041F28733CDE90655CDE904555322D7
:1046600080E82600C0E903358561FEF7C5FB002818
:1046700018BFFCF797FC6020CDE901054CF2EC4037
:10468000C2F2010001A9002203950595FEF7A2FAE6
:10469000002818BFFCF786FC4CF2EC45C2F201057D
:1046A00001A928460422FEF795FA002818BFFCF756
:1046B00079FC286844F20002C4F201020021904211
:1046C00009911FD040F20041C4F20101884229D073
:1046D0000021C4F20101884243D10020089043F632
:1046E0003000C4F20200016841F01001016000686E
:1046F00000F01000089008984FF4D4400990012071
:1047000025E000BF43F630000891C4F202000168C2
:1047100041F010010160006800F010000890089856
:10472000602012E00020089043F63000C4F202003E
:104730000168A4F5006441F004010160006800F024
:104740000400089008984FF470700990032002212B
:104750000A910021CDE90B110D9009A92046FDF722
:104760006DF80EB0B0BD000010B540F6FF3E036816
:10477000C4F2000E40F2004C7045C4F2010C27DC7C
:10478000B0F1804F31D040F20042C4F200029042BA
:104790002BD040F60002C4F20002904225D041F630
:1047A000FF72C4F20002904229DC70453CDCB0F19B
:1047B000804F5FD040F20042C4F20002904259D0D4
:1047C00040F60002C4F20002904253D056E000BF0F
:1047D00040F60042C4F20002904206D0604504D088
:1047E0000022C4F201029042D9D14A6823F070033A
:1047F000134341F6FF72C4F200029042D5DD43F646
:10480000FF72C4F20102904222DC42F20002C4F2C2
:10481000000290422ED00022C4F20102904229D020
:10482000604527D02AE000BF40F60042C4F20002F3
:1048300090421FD041F60002C4F20002904219D00B
:1048400041F60042C4F20002904213D016E000BFCD
:1048500044F20002C4F2010290420BD044F600027E
:10486000C4F20102904205D044F20042C4F20102B7
:10487000904203D1CA6823F44073134323F08002AB
:104880004B69D1F800E08C681A430260C46240F4BE
:104890008062C0F828E0624504BF09690163012114
:1048A000416110BD80B540F2644044F60041C2F25F
:1048B0000000C4F2000100234FF00C0C4FF4E13271
:1048C00080E80E00C0E90333C0E905C3C361FEF709
:1048D0005BFE002808BF80BDBDE88040FCF762BBDE
:1048E00040F26440C2F20000FEF7A2BB80B54CF279
:1048F000785045F20001C2F20100C4F20001002329
:104900004FF00C0C4FF4E13280E80E00C0E90333A5
:10491000C0E905C3C361FEF737FE002808BF80BDAC
:10492000BDE88040FCF73EBB4CF27850C2F201007B
:10493000FEF77EBB806B0021C185C184FEF776BB8C
:1049400081B090F83E10222920D18368B3F5805FB2
:1049500008D10169002965D000F128010A680368BF
:104960005B680AE0014651F8282F13B90369002B50
:10497000F5D003685B6803F07F0313700A680132A7
:104980000A60C18D01390A04C18501D001B07047A8
:104990000168CA6822F02002CA60CA6822F48072E4
:1049A000CA604A6922F001024A61202280F83E2052
:1049B000026B012A40D10022026300BF51E8031FAD
:1049C000026821F0100142E803130168DBB151E8ED
:1049D000031F026821F0100142E80313016893B13C
:1049E00051E8031F026821F0100142E80313016837
:1049F0004BB151E8031F026821F0100142E8031394
:104A00000168002BDAD10A68D20606D5002200928E
:104A10000A680092496800910099818D01B0FEF703
:104A200003BB00BF0168826A49686FF35F2122F807
:104A3000021B8262A5E700BF01B0FFF79BB8000030
:104A400010B504460068D4E902C22369016921F463
:104A5000405111430161626943EA0C01E36911436A
:104A6000C268194349F20C639A431143C16041691A
:104A7000A26921F4407141F20043114340F4806285
:104A8000C4F201039A42416102D1FDF73BF901E012
:104A9000FDF724F9E16963681922B1F5004FA0FB25
:104AA00002011FD15A00DB0FFBF7F1FB48F21F5147
:104AB000C5F2EB11A0FB01235A096FF0630302FB5F
:104AC0000300322303EBC000A0FB01014FF4F87098
:104AD00000EA111000EB0210C1F3421108442168F2
:104AE000886010BD9A009B0FFBF7D1FB48F21F5165
:104AF000C5F2EB11A0FB01235A096FF0630302FB1F
:104B00000300322303EB0010A0FB0101F02000EAB8
:104B1000511000EB0210C1F3431108442168886072
:104B200010BD000080B540F2DC3041F20001C2F25D
:104B30000000C4F2010100234FF00C0C4FF4E132ED
:104B400080E80E00C0E90333C0E905C3C361FEF786
:104B50001BFD002808BF80BDBDE88040FCF722BADD
:104B600040F2DC30C2F20000FEF762BA80B54CF2CF
:104B7000345044F20041C2F20100C4F200010023AB
:104B80004FF00C0C4FF4E13280E80E00C0E9033323
:104B9000C0E905C3C361FEF7F7FC002808BF80BD6C
:104BA000BDE88040FCF7FEB94CF23450C2F201007F
:104BB000FEF73EBA80B540F2204044F60001C2F252
:104BC0000000C4F2000100234FF00C0C4FF4E1325E
:104BD00080E80E00C0E90333C0E905C3C361FEF7F6
:104BE000D3FC002808BF80BDBDE88040FCF7DAB9DF
:104BF00040F22040C2F20000FEF71ABAFEE70000C1
:104C0000F0B581B040F6004740F2A8404CF24C416C
:104C1000C4F20207C2F20000C2F201013A460123C7
:104C200001F028FD40F20805C2F2000505F1180068
:104C300000F018FD4821C0F2023140F2045240F663
:104C4000081340F2F42CC0F20672C0F60A43C2F216
:104C5000000C85E80E108021A9824CF63C0140F240
:104C600000322F61C2F20101C0F2067240F6081351
:104C700040F60C5540F2012040F20564C0F60A33BC
:104C8000C0F21005C0F20340C0F2070448F201066A
:104C900081E82C0001F11402C2F24006C1E90304CC
:104CA00051C21020C0F2012044F20102C1F22002E0
:104CB00040F2084340F20046C1E9080401F128002F
:104CC000C0F20213C0F2021640F202154CC01020CE
:104CD000C0F6801581F838004FF480704D63C1E94B
:104CE0000FC7A1F8440001B0F0BD000082B04CF243
:104CF000A44540F294364CF2EC474AF6441445F28F
:104D0000710AC2F201054FF0000B4FF00408C2F225
:104D10000006C2F201074FF47A79C0F60004C0F62B
:104D2000000A00BFFCF7B6F8FFF7BCFDFFF7DEFD99
:104D3000FFF7F8FEFFF71AFFFFF73CFFFFF75CFBFA
:104D400040F24C30C2F20000FDF702FEFFF770FAAD
:104D5000FFF782FBFFF770FC28460021FEF7C4F83E
:104D600028460421FEF7C0F828460821FEF7BCF8C3
:104D700028460C21FEF7B8F830460021FEF7B4F8BB
:104D800030460421FEF7B0F830460821FEF7ACF8B3
:104D900030460C21FEF7A8F838460021FEF7A4F8AB
:104DA00038460421FEF7A0F82868C0F83490C0F80F
:104DB0003890C0F83C90C0F840903068C0F834900B
:104DC000C0F83890C0F83C90C0F840903868C0F8FF
:104DD0003490C0F83890FFF713F8FFF7FBF8FFF7AF
:104DE0002DF945F20D00C0F6000021468022002377
:104DF000CDF80080CDF804B004F0C0F9504621464B
:104E000080220023CDF80080CDF804B004F0B6F97C
:104E1000002003F0D1FC85E7B0B592B0002443F642
:104E20004000CDE90A44CDE908440594CDE90344A6
:104E3000CDE901440094C4F202000168022541F06A
:104E400080510160006800F080500090009847F2A7
:104E500000000094C4F20000016841F48041016048
:104E6000006800F4804000900098012006904FF404
:104E7000803007904FF480000D9004200E90A82001
:104E8000CDE90F050720119006A80C95FCF784FFCB
:104E9000A0B90F20CDE901054FF4A05004904FF4C4
:104EA0008050059001A805210394FCF767FE0028B7
:104EB00004BF12B0B0BDEFF3108072B6EFF31080F4
:104EC00072B6000080B5A1F12900222800F26080AE
:104ED0000FF20401DFE800F012185E5C5C5C5C5CC1
:104EE0005C5C5C5C5C5C5C5C5C5C5C5C5C5C5C62FC
:104EF0006E5C5C5C5C5C5C5C7C869000104603F0E5
:104F00000BFC012080BD00BF4FF4207000BF00BF2C
:104F100000BF00BF00BF00BF00BF00BF00BF00BF99
:104F200000BF00BF00BF00BF00BF00BF00BF00BF89
:104F300000BF00BF00BF00BF00BF00BF00BF00BF79
:104F400000BF00BF00BF00BF00BF00BF00BF00BF69
:104F500000BF00BF00BF00BF00BF00BF00BF00BF59
:104F600000BF00BF00BF00BF00BF00BF00BF00BF49
:104F700000BF00BF00BF00BF00BF00BF00BF00BF39
:104F800000BF00BF00BF00BF00BF403800BFBDD1A1
:104F9000012080BD012000BF80BD00BF41F20000A4
:104FA000C4F202004FF0100162B90022FCF724FDA8
:104FB000012080BD41F20000002AC4F202004FF03F
:104FC0000801F2D00122FCF717FD012080BD00BFCF
:104FD00041F20000002AC4F202004FF00101F1D1B9
:104FE000E3E700BF41F20000002AC4F202004FF0E4
:104FF0000201E7D1D9E700BF41F20000002AC4F264
:1050000002004FF00401DDD1CFE7000082B040F292
:10501000A848C2F20008404601F09AF940F208059B
:10502000C2F20005284601F033F84CF63C06C2F205
:105030000106304600F0E6FE6F460CA4642003F043
:105040006BFB404601F096FA3846294601F0D8F845
:10505000304600F079FF11EE100A05F093FB02468E
:1050600020460B46FBF78CF9E8E700BF25660A00EF
:10507000A6B040F20800C2F20000183000F032F88A
:10508000012003F049FB4AF64C1147F61D6244F635
:10509000C56301ACC0F60001C0F60002C0F6000313
:1050A000204602F003F92046002102F089FE4AF66C
:1050B00058154AF64416C0F60005C0F6000600BFB3
:1050C0000C2003F029FB2046294602F04BF820462D
:1050D00005211422334601F0FFFF204602F038F884
:1050E000EEE700002DE9F04F8DB08146856800693C
:1050F00008ABD9F8181003F1040A09ABD9F820203D
:1051000007C3D9F82800B9F80C100C90ADF81610A8
:10511000B9F81400B9F81C1043F63006ADF81800C1
:10512000ADF81A10B9F82400B9F82C10C4F2020630
:105130000024E8464FF0000B0895ADF81C00ADF8D0
:105140001E1000BF0020CBF6FE7028444FEAB020AE
:10515000042837D8DFE800F0040E18222C0000BF26
:105160000094306840F001003060306800F00100C9
:1051700026E000BF0094306840F0020030603068E4
:1051800000F002001CE000BF0094306840F0040012
:105190003060306800F0040012E000BF0094306816
:1051A00040F008003060306800F0080008E000BF00
:1051B0000094306840F010003060306800F010005B
:1051C000009000980DF1160030F81B70012001903E
:1051D0000220029003200390284641460494009741
:1051E000FCF72CFB284639460122FCF705FCBBF1F5
:1051F000040F05D05AF82B500BF1010BA2E700BFAA
:1052000099F800204846AE2100F094F999F8002062
:105210004846002100F08EF999F8002048461021F8
:1052200000F088F999F800204846402100F082F902
:1052300099F800204846812100F07CF999F8002077
:105240004846CF2100F076F999F800204846A12180
:1052500000F070F999F800204846C82100F06AF97A
:1052600099F800204846A62100F064F999F800203A
:105270004846A82100F05EF999F8002048463F21F1
:1052800000F058F999F800204846D32100F052F96F
:1052900099F800204846002100F04CF999F80020C8
:1052A0004846D52100F046F999F80020484680216B
:1052B00000F040F999F800204846D92100F03AF969
:1052C00099F800204846F12100F034F999F80020BF
:1052D0004846DA2100F02EF999F8002048461221BC
:1052E00000F028F999F800204846DB2100F022F967
:1052F00099F800204846402100F01CF999F8002058
:105300004846202100F016F999F80020484602216D
:1053100000F010F999F8002048468D2100F00AF9B4
:1053200099F800204846142100F004F999F800206B
:105330004846A42100F0FEF899F800204846A6212E
:1053400000F0F8F899F800204846AF2100F0F2F894
:1053500099F800204846AF2100F0ECF8484600F0EC
:1053600015F899F800204846B02100F0E3F899F8C4
:1053700000204846102100F0DDF899F8002048464A
:10538000012100F0D7F80DB0BDE8F08FB0B502787C
:10539000B021044600F0CEF82278204600210025F6
:1053A00000F0C8F822782046102100F0C3F800BFB2
:1053B00062782046002100F0BDF8681C45B2B5F1C6
:1053C000FF3FF5DC22782046B12100F0B3F82278C7
:1053D00020460021002500F0ADF82278204610215B
:1053E00000F0A8F862782046002100F0A3F8681CBD
:1053F00045B2B5F1FF3FF5DC22782046B22100F03E
:1054000099F8227820460021002500F093F82278B0
:105410002046102100F08EF862782046002100F02E
:1054200089F8681C45B2B5F1FF3FF5DC22782046CB
:10543000B32100F07FF8227820460021002500F0FB
:1054400079F822782046102100F074F8627820461E
:10545000002100F06FF8681C45B2B5F1FF3FF5DCA4
:1054600022782046B42100F065F8227820460021F9
:10547000002500F05FF822782046102100F05AF84D
:1054800062782046002100F055F8681C45B2B5F15D
:10549000FF3FF5DC22782046B52100F04BF822785A
:1054A00020460021002500F045F8227820461021F2
:1054B00000F040F862782046002100F03BF8681CBC
:1054C00045B2B5F1FF3FF5DC22782046B62100F069
:1054D00031F8227820460021002500F02BF82278B0
:1054E0002046102100F026F862782046002100F0C6
:1054F00021F8681C45B2B5F1FF3FF5DC2278204663
:10550000B72100F017F8227820460021002500F08E
:1055100011F822782046102100F00CF8627820461D
:10552000002100F007F8681C45B2B5F1FF3FF5DC3B
:10553000B0BD0000B0B50446A38A00690D46194607
:10554000FCF75AFAA068A1890022FCF755FAA06A74
:10555000A18D0022FCF750FA206AA18CEA09FCF721
:105560004BFAA06AA18D0122FCF746FAA06AA18D30
:105570000022FCF741FA206AA18CC5F38012FCF7E7
:105580003BFAA06AA18D0122FCF736FAA06AA18D30
:105590000022FCF731FA206AA18CC5F34012FCF717
:1055A0002BFAA06AA18D0122FCF726FAA06AA18D30
:1055B0000022FCF721FA206AA18CC5F30012FCF747
:1055C0001BFAA06AA18D0122FCF716FAA06AA18D30
:1055D0000022FCF711FA206AA18CC5F3C002FCF787
:1055E0000BFAA06AA18D0122FCF706FAA06AA18D30
:1055F0000022FCF701FA206AA18CC5F38002FCF7B7
:10560000FBF9A06AA18D0122FCF7F6F9A06AA18D31
:105610000022FCF7F1F9206AA18CC5F34002FCF7E7
:10562000EBF9A06AA18D0122FCF7E6F9A06AA18D31
:105630000022FCF7E1F9206AA18C05F00102FCF7D9
:10564000DBF9A06AA18D0122FCF7D6F9A068A18937
:105650000122FCF7D1F92069A18A0122BDE8B040FE
:10566000FCF7CAB9012340F2001183810223C4F27E
:10567000800141F200028382042301601021C4F200
:1056800002028383082301718260026182610262E7
:105690008384826281857047F0B581B00446006CD6
:1056A000B4F844100022FCF7A7F9E06B8321FEF761
:1056B00083FDE06BFF21FEF77FFD226CB4F8441000
:1056C000054610460122FCF797F9206CB4F8441007
:1056D0000022FCF791F9E06B8421FEF76DFDE06B91
:1056E000FF21FEF769FD226CB4F84410064610460F
:1056F0000122FCF781F9206CB4F844100022FCF779
:105700007BF9E06B8521FEF757FDE06BFF21FEF78B
:1057100053FD226CB4F84410074610460122FCF7F2
:105720006BF9300240EA05403844290648BF00F1D1
:105730007F40A06601B0F0BD2DE9F0410446006C49
:10574000B4F844100022FCF757F9E06B9021FEF703
:1057500033FDE06BFF21FEF72FFD226CB4F84410FF
:10576000054610460122FCF747F9206CB4F84410B6
:105770000022FCF741F9E06B9121FEF71DFDE06B83
:10578000FF21FEF719FD226CB4F8441006461046BE
:105790000122FCF731F9280140EA1612280648BF19
:1057A00002F57042206CB4F84410A4F8482000229E
:1057B000FCF722F9E06B9121FEF7FEFCE06BFF2184
:1057C000FEF7FAFC226CB4F844100546104601229C
:1057D000FCF712F9206CB4F844100022FCF70CF925
:1057E000E06B9221FEF7E8FCE06BFF21FEF7E4FCA2
:1057F000226CB4F84410064610460122FCF7FCF86F
:1058000005F00F0046EA0022280748BF02F5704263
:10581000206CB4F84410A4F84A200022FCF7ECF8FD
:10582000E06B9321FEF7C8FCE06BFF21FEF7C4FCA0
:10583000226CB4F84410054610460122FCF7DCF84F
:10584000206CB4F844100022FCF7D6F8E06B9421E9
:10585000FEF7B2FCE06BFF21FEF7AEFC226CB4F861
:105860004410064610460122FCF7C6F8206CB4F836
:1058700044100022FCF7C0F8E06B9521FEF79CFC79
:10588000E06BFF21FEF798FC226CB4F84410074649
:1058900010460122FCF7B0F8300140EA053040EA3A
:1058A000171240F200082806CFF6F07848BF42EA07
:1058B0000802206CB4F84410E2640022FCF79CF863
:1058C000E06B9521FEF778FCE06BFF21FEF774FC9E
:1058D000226CB4F84410054610460122FCF78CF8FF
:1058E000206CB4F844100022FCF786F8E06B962197
:1058F000FEF762FCE06BFF21FEF75EFC226CB4F861
:105900004410064610460122FCF776F8206CB4F8E5
:1059100044100022FCF770F8E06B9721FEF74CFC76
:10592000E06BFF21FEF748FC226CB4F844100746F8
:1059300010460122FCF760F8300240EA0540C21927
:10594000280748BF42EA0802206CB4F844102265D8
:105950000022FCF751F8E06B9821FEF72DFCE06B7C
:10596000FF21FEF729FC226CB4F8441005461046CE
:105970000122FCF741F8206CB4F844100022FCF737
:105980003BF8E06B9921FEF717FCE06BFF21FEF777
:1059900013FC226CB4F84410064610460122FCF7B2
:1059A0002BF846EA0522206CB4F84410A4F85420E1
:1059B0000022FCF721F8E06B9A21FEF7FDFBE06B7B
:1059C000FF21FEF7F9FB226CB4F84410054610469F
:1059D0000122FCF711F8206CB4F844100022FCF707
:1059E0000BF8E06B9B21FEF7E7FBE06BFF21FEF776
:1059F000E3FB226CB4F84410064610460122FBF784
:105A0000FBFF46EA0522206CB4F84410A4F85620A7
:105A10000022FBF7F1FFE06B9C21FEF7CDFBE06B72
:105A2000FF21FEF7C9FB226CB4F84410054610466E
:105A30000122FBF7E1FF206CB4F844100022FBF7D1
:105A4000DBFFE06B9D21FEF7B7FBE06BFF21FEF76C
:105A5000B3FB226CB4F84410064610460122FBF753
:105A6000CBFF46EA0522206CB4F84410A4F8582075
:105A70000022FBF7C1FFE06B9E21FEF79DFBE06B70
:105A8000FF21FEF799FB226CB4F84410054610463E
:105A90000122FBF7B1FF206CB4F844100022FBF7A1
:105AA000ABFFE06B9F21FEF787FBE06BFF21FEF76A
:105AB00083FB226CB4F84410064610460122FBF723
:105AC0009BFF46EA0522206CB4F84410A4F85A2043
:105AD0000022FBF791FFE06BA021FEF76DFBE06B6E
